{
  "contractName": "Polymarket",
  "abi": [
    {
      "inputs": [
        {
          "internalType": "address",
          "name": "_polyToken",
          "type": "address"
        }
      ],
      "stateMutability": "nonpayable",
      "type": "constructor"
    },
    {
      "anonymous": false,
      "inputs": [
        {
          "indexed": false,
          "internalType": "uint256",
          "name": "id",
          "type": "uint256"
        },
        {
          "indexed": false,
          "internalType": "string",
          "name": "question",
          "type": "string"
        },
        {
          "indexed": false,
          "internalType": "uint256",
          "name": "timestamp",
          "type": "uint256"
        },
        {
          "indexed": false,
          "internalType": "address",
          "name": "createdBy",
          "type": "address"
        },
        {
          "indexed": false,
          "internalType": "string",
          "name": "creatorImageHash",
          "type": "string"
        },
        {
          "indexed": false,
          "internalType": "uint256",
          "name": "totalAmount",
          "type": "uint256"
        },
        {
          "indexed": false,
          "internalType": "uint256",
          "name": "totalYesAmount",
          "type": "uint256"
        },
        {
          "indexed": false,
          "internalType": "uint256",
          "name": "totalNoAmount",
          "type": "uint256"
        }
      ],
      "name": "QuestionCreated",
      "type": "event"
    },
    {
      "inputs": [],
      "name": "owner",
      "outputs": [
        {
          "internalType": "address",
          "name": "",
          "type": "address"
        }
      ],
      "stateMutability": "view",
      "type": "function",
      "constant": true
    },
    {
      "inputs": [],
      "name": "polyToken",
      "outputs": [
        {
          "internalType": "address",
          "name": "",
          "type": "address"
        }
      ],
      "stateMutability": "view",
      "type": "function",
      "constant": true
    },
    {
      "inputs": [
        {
          "internalType": "uint256",
          "name": "",
          "type": "uint256"
        }
      ],
      "name": "questions",
      "outputs": [
        {
          "internalType": "uint256",
          "name": "id",
          "type": "uint256"
        },
        {
          "internalType": "string",
          "name": "question",
          "type": "string"
        },
        {
          "internalType": "uint256",
          "name": "timestamp",
          "type": "uint256"
        },
        {
          "internalType": "uint256",
          "name": "endTimestamp",
          "type": "uint256"
        },
        {
          "internalType": "address",
          "name": "createdBy",
          "type": "address"
        },
        {
          "internalType": "string",
          "name": "creatorImageHash",
          "type": "string"
        },
        {
          "internalType": "uint256",
          "name": "totalAmount",
          "type": "uint256"
        },
        {
          "internalType": "uint256",
          "name": "totalYesAmount",
          "type": "uint256"
        },
        {
          "internalType": "uint256",
          "name": "totalNoAmount",
          "type": "uint256"
        },
        {
          "internalType": "bool",
          "name": "eventCompleted",
          "type": "bool"
        },
        {
          "internalType": "string",
          "name": "description",
          "type": "string"
        },
        {
          "internalType": "string",
          "name": "resolverUrl",
          "type": "string"
        }
      ],
      "stateMutability": "view",
      "type": "function",
      "constant": true
    },
    {
      "inputs": [],
      "name": "totalQuestions",
      "outputs": [
        {
          "internalType": "uint256",
          "name": "",
          "type": "uint256"
        }
      ],
      "stateMutability": "view",
      "type": "function",
      "constant": true
    },
    {
      "inputs": [
        {
          "internalType": "uint256",
          "name": "",
          "type": "uint256"
        }
      ],
      "name": "winningAddresses",
      "outputs": [
        {
          "internalType": "address",
          "name": "",
          "type": "address"
        }
      ],
      "stateMutability": "view",
      "type": "function",
      "constant": true
    },
    {
      "inputs": [
        {
          "internalType": "address",
          "name": "",
          "type": "address"
        }
      ],
      "name": "winningAmount",
      "outputs": [
        {
          "internalType": "uint256",
          "name": "",
          "type": "uint256"
        }
      ],
      "stateMutability": "view",
      "type": "function",
      "constant": true
    },
    {
      "inputs": [
        {
          "internalType": "string",
          "name": "_question",
          "type": "string"
        },
        {
          "internalType": "string",
          "name": "_creatorImageHash",
          "type": "string"
        },
        {
          "internalType": "string",
          "name": "_description",
          "type": "string"
        },
        {
          "internalType": "string",
          "name": "_resolverUrl",
          "type": "string"
        },
        {
          "internalType": "uint256",
          "name": "_endTimestamp",
          "type": "uint256"
        }
      ],
      "name": "createQuestion",
      "outputs": [],
      "stateMutability": "nonpayable",
      "type": "function"
    },
    {
      "inputs": [
        {
          "internalType": "uint256",
          "name": "_questionId",
          "type": "uint256"
        },
        {
          "internalType": "uint256",
          "name": "_value",
          "type": "uint256"
        }
      ],
      "name": "addYesBet",
      "outputs": [],
      "stateMutability": "payable",
      "type": "function",
      "payable": true
    },
    {
      "inputs": [
        {
          "internalType": "uint256",
          "name": "_questionId",
          "type": "uint256"
        },
        {
          "internalType": "uint256",
          "name": "_value",
          "type": "uint256"
        }
      ],
      "name": "addNoBet",
      "outputs": [],
      "stateMutability": "payable",
      "type": "function",
      "payable": true
    },
    {
      "inputs": [
        {
          "internalType": "uint256",
          "name": "_questionId",
          "type": "uint256"
        }
      ],
      "name": "getGraphData",
      "outputs": [
        {
          "components": [
            {
              "internalType": "address",
              "name": "user",
              "type": "address"
            },
            {
              "internalType": "uint256",
              "name": "amount",
              "type": "uint256"
            },
            {
              "internalType": "uint256",
              "name": "timestamp",
              "type": "uint256"
            }
          ],
          "internalType": "struct Polymarket.AmountAdded[]",
          "name": "",
          "type": "tuple[]"
        },
        {
          "components": [
            {
              "internalType": "address",
              "name": "user",
              "type": "address"
            },
            {
              "internalType": "uint256",
              "name": "amount",
              "type": "uint256"
            },
            {
              "internalType": "uint256",
              "name": "timestamp",
              "type": "uint256"
            }
          ],
          "internalType": "struct Polymarket.AmountAdded[]",
          "name": "",
          "type": "tuple[]"
        }
      ],
      "stateMutability": "view",
      "type": "function",
      "constant": true
    },
    {
      "inputs": [
        {
          "internalType": "uint256",
          "name": "_questionId",
          "type": "uint256"
        },
        {
          "internalType": "bool",
          "name": "eventOutcome",
          "type": "bool"
        }
      ],
      "name": "distributeWinningAmount",
      "outputs": [],
      "stateMutability": "payable",
      "type": "function",
      "payable": true
    },
    {
      "inputs": [],
      "name": "isAdmin",
      "outputs": [
        {
          "internalType": "bool",
          "name": "",
          "type": "bool"
        }
      ],
      "stateMutability": "view",
      "type": "function",
      "constant": true
    }
  ],
  "bytecode": "0x60806040525f60025534801562000014575f80fd5b506040516200262c3803806200262c83398181016040528101906200003a919062000125565b335f806101000a81548173ffffffffffffffffffffffffffffffffffffffff021916908373ffffffffffffffffffffffffffffffffffffffff1602179055508060015f6101000a81548173ffffffffffffffffffffffffffffffffffffffff021916908373ffffffffffffffffffffffffffffffffffffffff1602179055505062000155565b5f80fd5b5f73ffffffffffffffffffffffffffffffffffffffff82169050919050565b5f620000ef82620000c4565b9050919050565b6200010181620000e3565b81146200010c575f80fd5b50565b5f815190506200011f81620000f6565b92915050565b5f602082840312156200013d576200013c620000c0565b5b5f6200014c848285016200010f565b91505092915050565b6124c980620001635f395ff3fe6080604052600436106100a6575f3560e01c8063b6db75a011610063578063b6db75a0146101c6578063b78d6c1d146101f0578063bea5b9141461022c578063bf01fe0014610256578063da6b4db814610272578063eb3f75e2146102ae576100a6565b806314dd5762146100aa57806319a1cafe146100e757806331b1b9781461010f5780636faa22a514610156578063724ba40b146101805780638da5cb5b1461019c575b5f80fd5b3480156100b5575f80fd5b506100d060048036038101906100cb9190611683565b6102ca565b6040516100de9291906117e4565b60405180910390f35b3480156100f2575f80fd5b5061010d60048036038101906101089190611955565b61046f565b005b34801561011a575f80fd5b5061013560048036038101906101309190611683565b6105ad565b60405161014d9c9b9a99989796959493929190611aee565b60405180910390f35b348015610161575f80fd5b5061016a61084c565b6040516101779190611bc2565b60405180910390f35b61019a60048036038101906101959190611c05565b610871565b005b3480156101a7575f80fd5b506101b0610fe7565b6040516101bd9190611bc2565b60405180910390f35b3480156101d1575f80fd5b506101da61100a565b6040516101e79190611c43565b60405180910390f35b3480156101fb575f80fd5b5061021660048036038101906102119190611683565b61106e565b6040516102239190611bc2565b60405180910390f35b348015610237575f80fd5b506102406110a9565b60405161024d9190611c5c565b60405180910390f35b610270600480360381019061026b9190611c75565b6110af565b005b34801561027d575f80fd5b5061029860048036038101906102939190611cdd565b611350565b6040516102a59190611c5c565b60405180910390f35b6102c860048036038101906102c39190611c75565b611365565b005b6060805f60035f8581526020019081526020015f209050806006018160070181805480602002602001604051908101604052809291908181526020015f905b828210156103a1578382905f5260205f2090600302016040518060600160405290815f82015f9054906101000a900473ffffffffffffffffffffffffffffffffffffffff1673ffffffffffffffffffffffffffffffffffffffff1673ffffffffffffffffffffffffffffffffffffffff1681526020016001820154815260200160028201548152505081526020019060010190610309565b50505050915080805480602002602001604051908101604052809291908181526020015f905b8282101561045f578382905f5260205f2090600302016040518060600160405290815f82015f9054906101000a900473ffffffffffffffffffffffffffffffffffffffff1673ffffffffffffffffffffffffffffffffffffffff1673ffffffffffffffffffffffffffffffffffffffff16815260200160018201548152602001600282015481525050815260200190600101906103c7565b5050505090509250925050915091565b5f4290505f60035f60025481526020019081526020015f20905060025f81548092919061049b90611d35565b91905055815f0181905550868160010190816104b79190611f76565b5081816002018190555033816004015f6101000a81548173ffffffffffffffffffffffffffffffffffffffff021916908373ffffffffffffffffffffffffffffffffffffffff160217905550858160050190816105149190611f76565b505f81600801819055505f81600901819055505f81600a01819055508481600c0190816105419190611f76565b508381600d0190816105539190611f76565b508281600301819055507fd8960286cb5486e9a27d200d805d06e2eeda2fe2bd67967e36b466ecd440ac996002548884338a5f805f60405161059c98979695949392919061207e565b60405180910390a150505050505050565b6003602052805f5260405f205f91509050805f0154908060010180546105d290611da9565b80601f01602080910402602001604051908101604052809291908181526020018280546105fe90611da9565b80156106495780601f1061062057610100808354040283529160200191610649565b820191905f5260205f20905b81548152906001019060200180831161062c57829003601f168201915b505050505090806002015490806003015490806004015f9054906101000a900473ffffffffffffffffffffffffffffffffffffffff169080600501805461068f90611da9565b80601f01602080910402602001604051908101604052809291908181526020018280546106bb90611da9565b80156107065780601f106106dd57610100808354040283529160200191610706565b820191905f5260205f20905b8154815290600101906020018083116106e957829003601f168201915b50505050509080600801549080600901549080600a01549080600b015f9054906101000a900460ff169080600c01805461073f90611da9565b80601f016020809104026020016040519081016040528092919081815260200182805461076b90611da9565b80156107b65780601f1061078d576101008083540402835291602001916107b6565b820191905f5260205f20905b81548152906001019060200180831161079957829003601f168201915b50505050509080600d0180546107cb90611da9565b80601f01602080910402602001604051908101604052809291908181526020018280546107f790611da9565b80156108425780601f1061081957610100808354040283529160200191610842565b820191905f5260205f20905b81548152906001019060200180831161082557829003601f168201915b505050505090508c565b60015f9054906101000a900473ffffffffffffffffffffffffffffffffffffffff1681565b5f8054906101000a900473ffffffffffffffffffffffffffffffffffffffff1673ffffffffffffffffffffffffffffffffffffffff163373ffffffffffffffffffffffffffffffffffffffff16146108fe576040517f08c379a00000000000000000000000000000000000000000000000000000000081526004016108f590612152565b60405180910390fd5b5f60035f8481526020019081526020015f2090508115610c71575f5b8160060180549050811015610ae7575f826009015483600601838154811061094557610944612170565b5b905f5260205f2090600302016001015484600a0154610964919061219d565b61096e919061220b565b905082600601828154811061098657610985612170565b5b905f5260205f20906003020160010154816109a1919061223b565b60045f8560060185815481106109ba576109b9612170565b5b905f5260205f2090600302015f015f9054906101000a900473ffffffffffffffffffffffffffffffffffffffff1673ffffffffffffffffffffffffffffffffffffffff1673ffffffffffffffffffffffffffffffffffffffff1681526020019081526020015f205f828254610a2f919061223b565b925050819055506005836006018381548110610a4e57610a4d612170565b5b905f5260205f2090600302015f015f9054906101000a900473ffffffffffffffffffffffffffffffffffffffff16908060018154018082558091505060019003905f5260205f20015f9091909190916101000a81548173ffffffffffffffffffffffffffffffffffffffff021916908373ffffffffffffffffffffffffffffffffffffffff16021790555050808060010191505061091a565b505f5b600580549050811015610c5e575f60058281548110610b0c57610b0b612170565b5b905f5260205f20015f9054906101000a900473ffffffffffffffffffffffffffffffffffffffff16905060015f9054906101000a900473ffffffffffffffffffffffffffffffffffffffff1673ffffffffffffffffffffffffffffffffffffffff1663a9059cbb8260045f8573ffffffffffffffffffffffffffffffffffffffff1673ffffffffffffffffffffffffffffffffffffffff1681526020019081526020015f20546040518363ffffffff1660e01b8152600401610bcf9291906122c0565b6020604051808303815f875af1158015610beb573d5f803e3d5ffd5b505050506040513d601f19601f82011682018060405250810190610c0f91906122fb565b5060045f8273ffffffffffffffffffffffffffffffffffffffff1673ffffffffffffffffffffffffffffffffffffffff1681526020019081526020015f205f9055508080600101915050610aea565b5060055f610c6c9190611606565b610fc6565b5f5b8160070180549050811015610e40575f82600a0154836007018381548110610c9e57610c9d612170565b5b905f5260205f209060030201600101548460090154610cbd919061219d565b610cc7919061220b565b9050826007018281548110610cdf57610cde612170565b5b905f5260205f2090600302016001015481610cfa919061223b565b60045f856007018581548110610d1357610d12612170565b5b905f5260205f2090600302015f015f9054906101000a900473ffffffffffffffffffffffffffffffffffffffff1673ffffffffffffffffffffffffffffffffffffffff1673ffffffffffffffffffffffffffffffffffffffff1681526020019081526020015f205f828254610d88919061223b565b925050819055506005836007018381548110610da757610da6612170565b5b905f5260205f2090600302015f015f9054906101000a900473ffffffffffffffffffffffffffffffffffffffff16908060018154018082558091505060019003905f5260205f20015f9091909190916101000a81548173ffffffffffffffffffffffffffffffffffffffff021916908373ffffffffffffffffffffffffffffffffffffffff160217905550508080600101915050610c73565b505f5b600580549050811015610fb7575f60058281548110610e6557610e64612170565b5b905f5260205f20015f9054906101000a900473ffffffffffffffffffffffffffffffffffffffff16905060015f9054906101000a900473ffffffffffffffffffffffffffffffffffffffff1673ffffffffffffffffffffffffffffffffffffffff1663a9059cbb8260045f8573ffffffffffffffffffffffffffffffffffffffff1673ffffffffffffffffffffffffffffffffffffffff1681526020019081526020015f20546040518363ffffffff1660e01b8152600401610f289291906122c0565b6020604051808303815f875af1158015610f44573d5f803e3d5ffd5b505050506040513d601f19601f82011682018060405250810190610f6891906122fb565b5060045f8273ffffffffffffffffffffffffffffffffffffffff1673ffffffffffffffffffffffffffffffffffffffff1681526020019081526020015f205f9055508080600101915050610e43565b5060055f610fc59190611606565b5b600181600b015f6101000a81548160ff021916908315150217905550505050565b5f8054906101000a900473ffffffffffffffffffffffffffffffffffffffff1681565b5f805f9054906101000a900473ffffffffffffffffffffffffffffffffffffffff1673ffffffffffffffffffffffffffffffffffffffff163373ffffffffffffffffffffffffffffffffffffffff1603611067576001905061106b565b5f90505b90565b6005818154811061107d575f80fd5b905f5260205f20015f915054906101000a900473ffffffffffffffffffffffffffffffffffffffff1681565b60025481565b60025482106110f3576040517f08c379a00000000000000000000000000000000000000000000000000000000081526004016110ea90612370565b60405180910390fd5b60035f8381526020019081526020015f20600301544210611149576040517f08c379a0000000000000000000000000000000000000000000000000000000008152600401611140906123d8565b60405180910390fd5b60035f8381526020019081526020015f20600b015f9054906101000a900460ff16156111aa576040517f08c379a00000000000000000000000000000000000000000000000000000000081526004016111a190612440565b60405180910390fd5b5f60035f8481526020019081526020015f20905060015f9054906101000a900473ffffffffffffffffffffffffffffffffffffffff1673ffffffffffffffffffffffffffffffffffffffff166323b872dd3330856040518463ffffffff1660e01b815260040161121c9392919061245e565b6020604051808303815f875af1158015611238573d5f803e3d5ffd5b505050506040513d601f19601f8201168201806040525081019061125c91906122fb565b505f60405180606001604052803373ffffffffffffffffffffffffffffffffffffffff1681526020018481526020014281525090508282600a015f8282546112a4919061223b565b9250508190555082826008015f8282546112be919061223b565b925050819055508160070181908060018154018082558091505060019003905f5260205f2090600302015f909190919091505f820151815f015f6101000a81548173ffffffffffffffffffffffffffffffffffffffff021916908373ffffffffffffffffffffffffffffffffffffffff1602179055506020820151816001015560408201518160020155505050505050565b6004602052805f5260405f205f915090505481565b60025482106113a9576040517f08c379a00000000000000000000000000000000000000000000000000000000081526004016113a090612370565b60405180910390fd5b60035f8381526020019081526020015f206003015442106113ff576040517f08c379a00000000000000000000000000000000000000000000000000000000081526004016113f6906123d8565b60405180910390fd5b60035f8381526020019081526020015f20600b015f9054906101000a900460ff1615611460576040517f08c379a000000000000000000000000000000000000000000000000000000000815260040161145790612440565b60405180910390fd5b5f60035f8481526020019081526020015f20905060015f9054906101000a900473ffffffffffffffffffffffffffffffffffffffff1673ffffffffffffffffffffffffffffffffffffffff166323b872dd3330856040518463ffffffff1660e01b81526004016114d29392919061245e565b6020604051808303815f875af11580156114ee573d5f803e3d5ffd5b505050506040513d601f19601f8201168201806040525081019061151291906122fb565b505f60405180606001604052803373ffffffffffffffffffffffffffffffffffffffff16815260200184815260200142815250905082826009015f82825461155a919061223b565b9250508190555082826008015f828254611574919061223b565b925050819055508160060181908060018154018082558091505060019003905f5260205f2090600302015f909190919091505f820151815f015f6101000a81548173ffffffffffffffffffffffffffffffffffffffff021916908373ffffffffffffffffffffffffffffffffffffffff1602179055506020820151816001015560408201518160020155505050505050565b5080545f8255905f5260205f20908101906116219190611624565b50565b5b8082111561163b575f815f905550600101611625565b5090565b5f604051905090565b5f80fd5b5f80fd5b5f819050919050565b61166281611650565b811461166c575f80fd5b50565b5f8135905061167d81611659565b92915050565b5f6020828403121561169857611697611648565b5b5f6116a58482850161166f565b91505092915050565b5f81519050919050565b5f82825260208201905092915050565b5f819050602082019050919050565b5f73ffffffffffffffffffffffffffffffffffffffff82169050919050565b5f611700826116d7565b9050919050565b611710816116f6565b82525050565b61171f81611650565b82525050565b606082015f8201516117395f850182611707565b50602082015161174c6020850182611716565b50604082015161175f6040850182611716565b50505050565b5f6117708383611725565b60608301905092915050565b5f602082019050919050565b5f611792826116ae565b61179c81856116b8565b93506117a7836116c8565b805f5b838110156117d75781516117be8882611765565b97506117c98361177c565b9250506001810190506117aa565b5085935050505092915050565b5f6040820190508181035f8301526117fc8185611788565b905081810360208301526118108184611788565b90509392505050565b5f80fd5b5f80fd5b5f601f19601f8301169050919050565b7f4e487b71000000000000000000000000000000000000000000000000000000005f52604160045260245ffd5b61186782611821565b810181811067ffffffffffffffff8211171561188657611885611831565b5b80604052505050565b5f61189861163f565b90506118a4828261185e565b919050565b5f67ffffffffffffffff8211156118c3576118c2611831565b5b6118cc82611821565b9050602081019050919050565b828183375f83830152505050565b5f6118f96118f4846118a9565b61188f565b9050828152602081018484840111156119155761191461181d565b5b6119208482856118d9565b509392505050565b5f82601f83011261193c5761193b611819565b5b813561194c8482602086016118e7565b91505092915050565b5f805f805f60a0868803121561196e5761196d611648565b5b5f86013567ffffffffffffffff81111561198b5761198a61164c565b5b61199788828901611928565b955050602086013567ffffffffffffffff8111156119b8576119b761164c565b5b6119c488828901611928565b945050604086013567ffffffffffffffff8111156119e5576119e461164c565b5b6119f188828901611928565b935050606086013567ffffffffffffffff811115611a1257611a1161164c565b5b611a1e88828901611928565b9250506080611a2f8882890161166f565b9150509295509295909350565b611a4581611650565b82525050565b5f81519050919050565b5f82825260208201905092915050565b5f5b83811015611a82578082015181840152602081019050611a67565b5f8484015250505050565b5f611a9782611a4b565b611aa18185611a55565b9350611ab1818560208601611a65565b611aba81611821565b840191505092915050565b611ace816116f6565b82525050565b5f8115159050919050565b611ae881611ad4565b82525050565b5f61018082019050611b025f83018f611a3c565b8181036020830152611b14818e611a8d565b9050611b23604083018d611a3c565b611b30606083018c611a3c565b611b3d608083018b611ac5565b81810360a0830152611b4f818a611a8d565b9050611b5e60c0830189611a3c565b611b6b60e0830188611a3c565b611b79610100830187611a3c565b611b87610120830186611adf565b818103610140830152611b9a8185611a8d565b9050818103610160830152611baf8184611a8d565b90509d9c50505050505050505050505050565b5f602082019050611bd55f830184611ac5565b92915050565b611be481611ad4565b8114611bee575f80fd5b50565b5f81359050611bff81611bdb565b92915050565b5f8060408385031215611c1b57611c1a611648565b5b5f611c288582860161166f565b9250506020611c3985828601611bf1565b9150509250929050565b5f602082019050611c565f830184611adf565b92915050565b5f602082019050611c6f5f830184611a3c565b92915050565b5f8060408385031215611c8b57611c8a611648565b5b5f611c988582860161166f565b9250506020611ca98582860161166f565b9150509250929050565b611cbc816116f6565b8114611cc6575f80fd5b50565b5f81359050611cd781611cb3565b92915050565b5f60208284031215611cf257611cf1611648565b5b5f611cff84828501611cc9565b91505092915050565b7f4e487b71000000000000000000000000000000000000000000000000000000005f52601160045260245ffd5b5f611d3f82611650565b91507fffffffffffffffffffffffffffffffffffffffffffffffffffffffffffffffff8203611d7157611d70611d08565b5b600182019050919050565b7f4e487b71000000000000000000000000000000000000000000000000000000005f52602260045260245ffd5b5f6002820490506001821680611dc057607f821691505b602082108103611dd357611dd2611d7c565b5b50919050565b5f819050815f5260205f209050919050565b5f6020601f8301049050919050565b5f82821b905092915050565b5f60088302611e357fffffffffffffffffffffffffffffffffffffffffffffffffffffffffffffffff82611dfa565b611e3f8683611dfa565b95508019841693508086168417925050509392505050565b5f819050919050565b5f611e7a611e75611e7084611650565b611e57565b611650565b9050919050565b5f819050919050565b611e9383611e60565b611ea7611e9f82611e81565b848454611e06565b825550505050565b5f90565b611ebb611eaf565b611ec6818484611e8a565b505050565b5b81811015611ee957611ede5f82611eb3565b600181019050611ecc565b5050565b601f821115611f2e57611eff81611dd9565b611f0884611deb565b81016020851015611f17578190505b611f2b611f2385611deb565b830182611ecb565b50505b505050565b5f82821c905092915050565b5f611f4e5f1984600802611f33565b1980831691505092915050565b5f611f668383611f3f565b9150826002028217905092915050565b611f7f82611a4b565b67ffffffffffffffff811115611f9857611f97611831565b5b611fa28254611da9565b611fad828285611eed565b5f60209050601f831160018114611fde575f8415611fcc578287015190505b611fd68582611f5b565b86555061203d565b601f198416611fec86611dd9565b5f5b8281101561201357848901518255600182019150602085019450602081019050611fee565b86831015612030578489015161202c601f891682611f3f565b8355505b6001600288020188555050505b505050505050565b5f819050919050565b5f61206861206361205e84612045565b611e57565b611650565b9050919050565b6120788161204e565b82525050565b5f610100820190506120925f83018b611a3c565b81810360208301526120a4818a611a8d565b90506120b36040830189611a3c565b6120c06060830188611ac5565b81810360808301526120d28187611a8d565b90506120e160a083018661206f565b6120ee60c083018561206f565b6120fb60e083018461206f565b9998505050505050505050565b7f556e617574686f72697a656400000000000000000000000000000000000000005f82015250565b5f61213c600c83611a55565b915061214782612108565b602082019050919050565b5f6020820190508181035f83015261216981612130565b9050919050565b7f4e487b71000000000000000000000000000000000000000000000000000000005f52603260045260245ffd5b5f6121a782611650565b91506121b283611650565b92508282026121c081611650565b915082820484148315176121d7576121d6611d08565b5b5092915050565b7f4e487b71000000000000000000000000000000000000000000000000000000005f52601260045260245ffd5b5f61221582611650565b915061222083611650565b9250826122305761222f6121de565b5b828204905092915050565b5f61224582611650565b915061225083611650565b925082820190508082111561226857612267611d08565b5b92915050565b5f61228861228361227e846116d7565b611e57565b6116d7565b9050919050565b5f6122998261226e565b9050919050565b5f6122aa8261228f565b9050919050565b6122ba816122a0565b82525050565b5f6040820190506122d35f8301856122b1565b6122e06020830184611a3c565b9392505050565b5f815190506122f581611bdb565b92915050565b5f602082840312156123105761230f611648565b5b5f61231d848285016122e7565b91505092915050565b7f496e76616c6964205175657374696f6e204944000000000000000000000000005f82015250565b5f61235a601383611a55565b915061236582612326565b602082019050919050565b5f6020820190508181035f8301526123878161234e565b9050919050565b7f42657474696e6720706572696f642068617320656e64656400000000000000005f82015250565b5f6123c2601883611a55565b91506123cd8261238e565b602082019050919050565b5f6020820190508181035f8301526123ef816123b6565b9050919050565b7f4576656e7420697320616c726561647920636f6d706c657465640000000000005f82015250565b5f61242a601a83611a55565b9150612435826123f6565b602082019050919050565b5f6020820190508181035f8301526124578161241e565b9050919050565b5f6060820190506124715f830186611ac5565b61247e6020830185611ac5565b61248b6040830184611a3c565b94935050505056fea2646970667358221220aaa8783baa4aa6e0fef8597ab2f8a07638642062980e998b3ede75cb0e37903764736f6c63430008180033",
  "immutableReferences": {},
  "source": "// SPDX-License-Identifier: MIT\r\npragma solidity ^0.8.6;\r\nimport \"@openzeppelin/contracts/token/ERC20/ERC20.sol\";\r\n\r\ncontract Polymarket {\r\n    address public owner;\r\n    address public polyToken;\r\n\r\n    uint256 public totalQuestions = 0;\r\n\r\n    constructor(address _polyToken) {\r\n        owner = msg.sender;\r\n        polyToken = _polyToken;\r\n    }\r\n\r\n    mapping(uint256 => Questions) public questions;\r\n\r\n    struct Questions {\r\n        uint256 id;\r\n        string question;\r\n        uint256 timestamp;\r\n        uint256 endTimestamp;\r\n        address createdBy;\r\n        string creatorImageHash;\r\n        AmountAdded[] yesCount;\r\n        AmountAdded[] noCount;\r\n        uint256 totalAmount;\r\n        uint256 totalYesAmount;\r\n        uint256 totalNoAmount;\r\n        bool eventCompleted;\r\n        string description;\r\n        string resolverUrl;\r\n    }\r\n\r\n    struct AmountAdded {\r\n        address user;\r\n        uint256 amount;\r\n        uint256 timestamp;\r\n    }\r\n\r\n    mapping(address => uint256) public winningAmount;\r\n    address[] public winningAddresses;\r\n\r\n    event QuestionCreated(\r\n        uint256 id,\r\n        string question,\r\n        uint256 timestamp,\r\n        address createdBy,\r\n        string creatorImageHash,\r\n        uint256 totalAmount,\r\n        uint256 totalYesAmount,\r\n        uint256 totalNoAmount\r\n    );\r\n\r\n  function createQuestion(\r\n    string memory _question,\r\n    string memory _creatorImageHash,\r\n    string memory _description,\r\n    string memory _resolverUrl,\r\n    uint256 _endTimestamp\r\n) public {\r\n\r\n    uint256 timestamp = block.timestamp;\r\n\r\n    Questions storage question = questions[totalQuestions];\r\n\r\n    question.id = totalQuestions++;\r\n    question.question = _question;\r\n    question.timestamp = timestamp;\r\n    question.createdBy = msg.sender; \r\n    question.creatorImageHash = _creatorImageHash;\r\n    question.totalAmount = 0;\r\n    question.totalYesAmount = 0;\r\n    question.totalNoAmount = 0;\r\n    question.description = _description;\r\n    question.resolverUrl = _resolverUrl;\r\n    question.endTimestamp = _endTimestamp;\r\n\r\n    emit QuestionCreated(\r\n        totalQuestions,\r\n        _question,\r\n        timestamp,\r\n        msg.sender,\r\n        _creatorImageHash,\r\n        0,\r\n        0,\r\n        0\r\n    );\r\n}\r\n\r\n\r\nfunction addYesBet(uint256 _questionId, uint256 _value) public payable {\r\n    require(_questionId < totalQuestions, \"Invalid Question ID\");\r\n    require(block.timestamp < questions[_questionId].endTimestamp, \"Betting period has ended\");\r\n    require(!questions[_questionId].eventCompleted, \"Event is already completed\");\r\n    Questions storage question = questions[_questionId];\r\n        ERC20(polyToken).transferFrom(msg.sender, address(this), _value);\r\n        AmountAdded memory amountAdded = AmountAdded(\r\n            msg.sender,\r\n            _value,\r\n            block.timestamp\r\n        );\r\n\r\n        question.totalYesAmount += _value;\r\n        question.totalAmount += _value;\r\n        question.yesCount.push(amountAdded);\r\n}\r\n\r\nfunction addNoBet(uint256 _questionId, uint256 _value) public payable {\r\n    require(_questionId < totalQuestions, \"Invalid Question ID\");\r\n    require(block.timestamp < questions[_questionId].endTimestamp, \"Betting period has ended\");\r\n    require(!questions[_questionId].eventCompleted, \"Event is already completed\");\r\n     Questions storage question = questions[_questionId];\r\n        ERC20(polyToken).transferFrom(msg.sender, address(this), _value);\r\n        AmountAdded memory amountAdded = AmountAdded(\r\n            msg.sender,\r\n            _value,\r\n            block.timestamp\r\n        );\r\n\r\n        question.totalNoAmount += _value;\r\n        question.totalAmount += _value;\r\n        question.noCount.push(amountAdded);\r\n}\r\n\r\n    function getGraphData(uint256 _questionId)\r\n        public\r\n        view\r\n        returns (AmountAdded[] memory, AmountAdded[] memory)\r\n    {\r\n        Questions storage question = questions[_questionId];\r\n        return (question.yesCount, question.noCount);\r\n    }\r\n\r\n    function distributeWinningAmount(uint256 _questionId, bool eventOutcome)\r\n        public\r\n        payable\r\n    {\r\n        require(msg.sender == owner, \"Unauthorized\");\r\n\r\n        Questions storage question = questions[_questionId];\r\n        if (eventOutcome) {\r\n            for (uint256 i = 0; i < question.yesCount.length; i++) {\r\n                uint256 amount = (question.totalNoAmount *\r\n                    question.yesCount[i].amount) / question.totalYesAmount;\r\n                winningAmount[question.yesCount[i].user] += (amount +\r\n                    question.yesCount[i].amount);\r\n                winningAddresses.push(question.yesCount[i].user);\r\n            }\r\n\r\n            for (uint256 i = 0; i < winningAddresses.length; i++) {\r\n                address payable _address = payable(winningAddresses[i]);\r\n                ERC20(polyToken).transfer(_address, winningAmount[_address]);\r\n                delete winningAmount[_address];\r\n            }\r\n            delete winningAddresses;\r\n        } else {\r\n            for (uint256 i = 0; i < question.noCount.length; i++) {\r\n                uint256 amount = (question.totalYesAmount *\r\n                    question.noCount[i].amount) / question.totalNoAmount;\r\n                winningAmount[question.noCount[i].user] += (amount +\r\n                    question.noCount[i].amount);\r\n                winningAddresses.push(question.noCount[i].user);\r\n            }\r\n\r\n            for (uint256 i = 0; i < winningAddresses.length; i++) {\r\n                address payable _address = payable(winningAddresses[i]);\r\n                ERC20(polyToken).transfer(_address, winningAmount[_address]);\r\n                delete winningAmount[_address];\r\n            }\r\n            delete winningAddresses;\r\n        }\r\n        question.eventCompleted = true;\r\n    }\r\n\r\n    function isAdmin() public view returns (bool) {\r\n        if (msg.sender == owner) return true;\r\n        else return false;\r\n    }\r\n}\r\n",
  "sourcePath": "D:\\Polymarket-clone\\contracts\\Polymarket.sol",
  "compiler": {
    "name": "solc",
    "version": "0.8.24+commit.e11b9ed9.Emscripten.clang"
  },
  "schemaVersion": "3.4.16",
  "updatedAt": "2024-02-03T00:33:37.669Z",
  "networkType": "ethereum",
  "devdoc": {
    "kind": "dev",
    "methods": {},
    "version": 1
  },
  "userdoc": {
    "kind": "user",
    "methods": {},
    "version": 1
  }
}